:100000000C9463000C948B000C948B000C94D00324
:100010000C94D0030C94D0030C948B000C948B00A4
:100020000C948B000C948B000C948B000C948B0024
:100030000C948B000C948B000C948B000C948B0014
:100040000C94C4070C948B000C949E030C947803BE
:100050000C948B000C948B000C948B000C948B00F4
:100060000C948B000C948B000000000024002700EF
:100070002A0000000008000201000003040700003D
:1000800000000000000000000000230026002900FE
:1000900000000000250028002B00040404040404D0
:1000A0000404020202020202030303030303010227
:1000B00004081020408001020408102001020408F6
:1000C0001020B00A8D0A11241FBECFEFD8E0DEBF8A
:1000D000CDBF11E0A0E0B1E0EEE4FDE102C005908B
:1000E0000D92A039B107D9F722E0A0E9B1E001C033
:1000F0001D92A53BB207E1F710E0C2E6D0E004C0D4
:100100002197FE010E94980CC136D107C9F70E94C1
:100110000E080C949A0E0C9400000895CF92DF9272
:10012000EF92FF920F931F93CF93DF936C017A01AD
:100130008B01C0E0D0E0CE15DF0581F0D8016D91D4
:100140008D01D601ED91FC910190F081E02DC60169
:100150000995892B11F02196EECF7E01C701DF9121
:10016000CF911F910F91FF90EF90DF90CF90089566
:10017000FC01538D448D252F30E0842F90E0821BAD
:10018000930B541710F0CF96089501970895FC0132
:10019000918D828D981761F0828DDF01A80FB11DBE
:1001A0005D968C91928D9F5F9F73928F90E00895E2
:1001B0008FEF9FEF0895FC01918D828D981731F09C
:1001C000828DE80FF11D858D90E008958FEF9FEFF0
:1001D0000895FC01918D228D892F90E0805C9F4FC6
:1001E000821B91098F739927089580EE91E00E94F8
:1001F000E90021E0892B09F420E0822F0895FC0119
:10020000848DDF01A80FB11DA35ABF4F2C91848D9F
:1002100090E001968F739927848FA689B7892C93D4
:10022000A089B1898C91837080648C93938D848D27
:10023000981306C00288F389E02D80818F7D80832A
:100240000895EF92FF920F931F93CF93DF93EC01EA
:1002500081E0888F9B8D8C8D981305C0E889F98982
:10026000808185FD26C0F62E0B8D10E00F5F1F4F9D
:100270000F731127E02E8C8DE8120CC00FB607FC0F
:10028000FACFE889F989808185FFF5CFCE010E94F8
:10029000FF00F1CF8B8DFE01E80FF11DE35AFF4FF8
:1002A000F0829FB7F8940B8FEA89FB898081806286
:1002B0000AC09FB7F894EE89FF896083E889F989BD
:1002C00080818370806480839FBF81E090E0DF91B4
:1002D000CF911F910F91FF90EF900895CF93DF93EF
:1002E000EC01888D8823C9F0EA89FB89808185FD2E
:1002F00005C0A889B9898C9186FD0FC00FB607FC8F
:10030000F5CF808185FFF2CFA889B9898C9185FFCF
:10031000EDCFCE010E94FF00E7CFDF91CF9108958E
:1003200080E090E0892B29F00E94F50081110C9467
:10033000000008952091DA013091DB012817390778
:1003400071F49091D8018091D901981741F0E09112
:10035000D801F0E0E856FE4F808190E008958FEFDD
:100360009FEF089508951F93CF93DF93DC015C9670
:100370008D919C915D97009739F421E030E01396C0
:100380003C932E9312973BC05196ED91FC9152975E
:1003900050962C915097322F30951FB75E964C9106
:1003A0005E97742F727041FD6095F89440817723B9
:1003B00011F0422B01C043234083EC012197F1F758
:1003C00048E0508160FF02C0522B01C0532350838C
:1003D000EC012197F1F76695415099F780817723D9
:1003E00019F08323808302C0282B20831FBF5C96D3
:1003F0008D919C915D970197F1F781E090E0DF91FD
:10040000CF911F9108952091DA013091DB012817D7
:10041000390771F48091D9012091D80190E0805C76
:100420009F4F821B910960E470E00E94690C08955F
:1004300080E090E008952091DA013091DB012817E7
:100440003907B9F49091D8018091D901981789F0B2
:10045000E091D801F0E0E856FE4F80812091D8016C
:1004600030E02F5F3F4F2F7333272093D80190E068
:1004700008958FEF9FEF089580E090E008950E9427
:10048000850E0F931F93CF93DF93EC0188819981A1
:10049000009729F02A813B812617370788F48B01C2
:1004A0006F5F7F4F0E94BF0D009761F09983888333
:1004B0001B830A832C813D81232B11F4FC011082C4
:1004C00081E001C080E0DF91CF911F910F910895ED
:1004D000EF92FF920F931F93CF93DF9361157105F6
:1004E00011F480E01CC041155105C1F07B01EC0105
:1004F0008C819D818A01080F191FB801CE010E94CD
:100500004102882371F3288139818C819D81B70153
:10051000820F931F0E94930E1D830C8381E0DF9155
:10052000CF911F910F91FF90EF900895CF93DF939C
:1005300000D0CDB7DEB769831A8241E050E0BE013A
:100540006F5F7F4F0E9468020F900F90DF91CF91F5
:100550000895CF93DF93EC0188819981009711F082
:100560000E94360D198218821D821C821B821A82FB
:10057000DF91CF910895EF92FF920F931F93CF9346
:10058000DF93EC017B018A01BA010E9441028111D3
:1005900004C0CE010E94A90207C01D830C83B701CD
:1005A000888199810E94930ECE01DF91CF911F9196
:1005B0000F91FF90EF900895CF93DF93EC01FB0133
:1005C0008617970761F0608171816115710529F0C7
:1005D000448155810E94BB0202C00E94A902CE0143
:1005E000DF91CF910895FC01808191810C94360DAB
:1005F000FC0111821082138212821582148261150D
:10060000710551F0FB0101900020E9F73197AF012E
:10061000461B570B0C94BB020895EF92FF920F9369
:100620001F93CF93DF93CDB7DEB76E970FB6F894D5
:10063000DEBF0FBECDBF7B016EE871E0CE014996F3
:100640000E94F8021C8A1B8A1E8A1D8A188E1F8A25
:100650004AE08E010F5F1F4FB801C7010E94980B3F
:10066000F80101900020E9F73197AF01401B510BD1
:10067000B801CE0143960E94BB026BE371E0C80152
:100680000E94F8024F89588D6B897C89C8010E94AD
:100690006802811103C0C8010E94A90247E050E02E
:1006A0006EE371E0C8010E9468028823E9F0B80196
:1006B000CE0149960E94DC02C8010E94F302CE01DD
:1006C00043960E94F302CE0149960E94F3026E9671
:1006D0000FB6F894DEBF0FBECDBFDF91CF911F9153
:1006E0000F91FF90EF900895C8010E94A902DFCFFB
:1006F0001F920F920FB60F9211242F933F934F9397
:100700005F936F937F938F939F93AF93BF93EF9379
:10071000FF9380EE91E00E94FF00FF91EF91BF9167
:10072000AF919F918F917F916F915F914F913F9189
:100730002F910F900FBE0F901F9018951F920F9240
:100740000FB60F9211242F938F939F93EF93FF93E4
:10075000E091F001F091F1018081E091F601F091DA
:10076000F70182FD12C090818091F9018F5F8F7334
:100770002091FA01821751F0E091F901F0E0E05286
:10078000FE4F958F8093F90101C08081FF91EF9119
:100790009F918F912F910F900FBE0F901F901895E2
:1007A0001F920F920FB60F9211242F933F934F93E6
:1007B0005F936F937F938F939F93AF93BF93EF93C9
:1007C000FF93E091DA01F091DB01309709F451C019
:1007D000968DA685B785858591FF04C09C91892358
:1007E00029F447C09C91892309F043C0A389B489A7
:1007F0009C918589809589238C9386899789019717
:10080000F1F7608D718DA685B785558538E020E0BC
:10081000CB010197F1F7822F90E095958795282FCE
:100820004C91452309F02068315091F7868D81FD68
:1008300020958091D90190E001968F73992730918E
:10084000D801381749F0A091D901B0E0A856BE4FA1
:100850002C938093D90103C0868D8160868F828D11
:10086000938D0197F1F7A389B4899C918589892B90
:100870008C93FF91EF91BF91AF919F918F917F9159
:100880006F915F914F913F912F910F900FBE0F90FD
:100890001F9018955F926F927F928F929F92AF9266
:1008A000BF92CF92DF92EF92FF920F931F93CF935D
:1008B000DF938B014A01880C991C092C000CAA08B3
:1008C000BB08612C712C880F991FEC01C95FDE4FAA
:1008D0006A01550FEE08FF0860167106ACF45880E7
:1008E00061E0852D0E94DF06C501B4010E948A07E0
:1008F00060E0852D0E94DF06C701B6010E948A07CD
:100900008FEF681A780AE8CFDF91CF911F910F918E
:10091000FF90EF90DF90CF90BF90AF909F908F901F
:100920007F906F905F900895CF92DF92EF92FF9249
:100930000F931F93CF93DF9300D000D000D0CDB79B
:10094000DEB780EE91E00E94E900892B09F4F6C041
:1009500080E9E82E81E0F82E98E9C92E91E0D92EA1
:1009600087016EE871E0CE0101960E94F8020E94B4
:10097000D20597FD09C08C33910531F0682FCE0167
:1009800001960E949602F3CF8091A2029091A30259
:10099000009741F069817A816115710509F0BBC04A
:1009A0000E94360D89819A819093A3028093A202BE
:1009B0008B819C819093A5028093A4028D819E815E
:1009C0009093A7028093A6021A8219821C821B822E
:1009D0001E821D82CE0101960E94F3021A821982A4
:1009E0001C821B821E821D826CE972E0CE01019680
:1009F0000E94DC024091A6025091A7026091A202DF
:100A00007091A302CE0101960E946802811104C078
:100A1000CE0101960E94A9026CE3CE0101960E94CC
:100A20009602811104C0CE0101960E94A902BE0166
:100A30006F5F7F4F8CE992E00E94DC02CE0101964D
:100A40000E94F3028091A2029091A302009719F0F4
:100A50000E94710B03C060E070E0CB01F80161936C
:100A600071938F01F1E008391F0709F07ACF6EE822
:100A700071E0CE0101960E94F8020E94D20597FD16
:100A800006C0682FCE0101960E949602F6CFCE01D5
:100A900001960E94F30242E350E062E070E080E0E1
:100AA00090E00E944A0480919001909191018230DF
:100AB000910571F08330910571F00197C1F40E94A6
:100AC000240680919201909193010E940E070FC01D
:100AD0000E9424060CC0809192019091930101978D
:100AE00011F461E001C060E082E00E94DF0686E46C
:100AF00091E00E941206F701819191917F010E947D
:100B00003A06CE14DF0499F78AE591E00E941206B6
:100B10000E94240613C04091A4025091A5022D8189
:100B20003E814217530708F43BCF0E94930E8D81FC
:100B30009E819093A7028093A6024ACF26960FB675
:100B4000F894DEBF0FBECDBFDF91CF911F910F9103
:100B5000FF90EF90DF90CF9008953FB7F894809189
:100B6000A9029091AA02A091AB02B091AC0226B565
:100B7000A89B05C02F3F19F00196A11DB11D3FBFD5
:100B8000BA2FA92F982F8827820F911DA11DB11D63
:100B9000BC01CD0142E0660F771F881F991F4A955F
:100BA000D1F708952FB7F8948091AD029091AE02DD
:100BB000A091AF02B091B0022FBF8093E801909353
:100BC000E901A093EA01B093EB0180EE91E00E946D
:100BD000C70097FF26C02FB7F8948091AD0290917F
:100BE000AE02A091AF02B091B0022FBF4091E801D8
:100BF0005091E9016091EA017091EB01841B950B22
:100C0000A60BB70B4091E4015091E5016091E6011C
:100C10007091E70184179507A607B707B0F28FEF29
:100C20009FEF0895009769F0FC0101900020E9F71B
:100C30003197AF01481B590BBC0180EE91E00C9439
:100C40008E0080E090E00895CF93DF93ECE9F2E02E
:100C5000448155816081718180EE91E00E948E0017
:100C6000EC018CE891E00E9412068C0F9D1FDF9131
:100C7000CF9108958F929F92AF92BF92CF92DF92C1
:100C8000EF92FF920F931F93CF93DF93CDB7DEB711
:100C9000A1970FB6F894DEBF0FBECDBF6C01990FC0
:100CA000EE08FF08F7FE2BC06DE280EE91E00E9497
:100CB00021018C0122273327A9012C193D094E0956
:100CC0005F0919A2CE0181967C019AE0892E912CB0
:100CD000A12CB12CCA01B901A50194010E94380CC4
:100CE000605DF70162937F012115310541055105D2
:100CF00089F7CF010E941206080F191F1EC0A70115
:100D0000960119A28E010F5D1F4F8AE0C82ED12CCB
:100D1000E12CF12CCA01B901A70196010E94380CFF
:100D2000605DF80162938F01211531054105510580
:100D300089F7CF010E9412068C018CE891E00E9495
:100D40001206800F911FA1960FB6F894DEBF0FBE5A
:100D5000CDBFDF91CF911F910F91FF90EF90DF906A
:100D6000CF90BF90AF909F908F900895833081F087
:100D700028F4813099F08230A1F008958730A9F0ED
:100D80008830B9F08430D1F4809180008F7D03C029
:100D9000809180008F7780938000089584B58F774D
:100DA00002C084B58F7D84BD08958091B0008F7797
:100DB00003C08091B0008F7D8093B00008951F9391
:100DC000CF93DF93282F30E0F901EE58FF4F849145
:100DD000F901E255FF4FD491F901E656FF4FC49156
:100DE000CC23C1F0162F81110E94B606EC2FF0E043
:100DF000EE0FFF1FE057FF4FA591B4919FB7F894F6
:100E0000111104C08C91D095D82302C0EC91DE2B37
:100E1000DC939FBFDF91CF911F910895CF93DF9314
:100E2000009751F440E050E060E070E080E090E036
:100E3000DF91CF910C944A04EC0160E08EE00E94B7
:100E4000DF0660E080E10E94DF0660E081E10E9451
:100E5000DF0660E082E10E94DF06CC0FDD1FC95F84
:100E6000DE4F61E08881DF91CF910C94DF06CF9354
:100E7000DF9390E0FC01E255FF4F2491FC01E65620
:100E8000FF4F8491882361F190E0880F991FFC0146
:100E9000E859FF4FC591D491FC01E057FF4FA59150
:100EA000B491611109C09FB7F8948881209582237D
:100EB0008883EC912E230BC0623061F49FB7F894C5
:100EC0008881322F309583238883EC912E2B2C93AD
:100ED0009FBF06C08FB7F894E8812E2B28838FBF61
:100EE000DF91CF9108958E3008F08E508770806426
:100EF00080937C0080917A00806480937A00809156
:100F00007A0086FDFCCF809178002091790090E0F6
:100F1000922B08958F929F92AF92BF92CF92DF92C1
:100F2000EF92FF926B017C010E94AD054B015C01C9
:100F3000C114D104E104F104F1F00E94AD05DC011B
:100F4000CB0188199909AA09BB09883E9340A105DC
:100F5000B10570F321E0C21AD108E108F10888EE6A
:100F6000880E83E0981EA11CB11CC114D104E104B9
:100F7000F10419F7DDCFFF90EF90DF90CF90BF9095
:100F8000AF909F908F9008951F920F920FB60F927F
:100F900011242F933F938F939F93AF93BF9380918F
:100FA000AD029091AE02A091AF02B091B00230912B
:100FB000A80223E0230F2D3720F40196A11DB11DB7
:100FC00005C026E8230F0296A11DB11D2093A8029B
:100FD0008093AD029093AE02A093AF02B093B002A3
:100FE0008091A9029091AA02A091AB02B091AC02AB
:100FF0000196A11DB11D8093A9029093AA02A0930E
:10100000AB02B093AC02BF91AF919F918F913F9192
:101010002F910F900FBE0F901F901895789484B564
:10102000826084BD84B5816084BD85B5826085BDE4
:1010300085B5816085BD80916E00816080936E0072
:101040001092810080918100826080938100809164
:101050008100816080938100809180008160809315
:1010600080008091B10084608093B1008091B000D5
:1010700081608093B00080917A00846080937A00D0
:1010800080917A00826080937A0080917A008160FA
:1010900080937A0080917A00806880937A00109221
:1010A000C10010929802109297021092960210922C
:1010B000950210929402109293028FE190E0909327
:1010C0009A028093990290918902963108F058C053
:1010D00021E030E030939402209393022DE130E040
:1010E00030939602209395022DE030E030939802E1
:1010F0002093970240916800983058F031E09E307C
:1011000008F430E021E0822F01C0880F3A95EAF719
:1011100001C084E0842B80936800983038F09E30C2
:1011200040F0963148F020E030E008C02DE630E095
:1011300005C02BE630E002C02CE630E0309391028F
:1011400020939002983030F481E001C0880F9A9586
:10115000EAF70EC0292F30E09E3018F428503109EC
:1011600002C02E50310981E001C0880F2A95EAF7AC
:10117000809392028091990290919A020197F1F7DF
:101180008091970290919802892B49F1E091DA01C0
:10119000F091DB0122E0ED37F20709F1309739F0E9
:1011A000A389B4899C918589809589238C938091AA
:1011B0009B028E7F80939B021092D9011092D801DE
:1011C0008DE792E09093DB018093DA01E091900249
:1011D000F0919102908180919202892B80834AE064
:1011E00050E060E070E0409381025093820260938F
:1011F000830270938402E091F001F091F10182E0AA
:101200008083E091EC01F091ED011082E091EE011C
:10121000F091EF0180E180831092F801E091F401F8
:10122000F091F50186E08083E091F201F091F30105
:10123000808180618083E091F201F091F3018081EF
:1012400088608083E091F201F091F30180818068F1
:101250008083E091F201F091F30180818F7D8083A2
:101260004093E4015093E5016093E6017093E70138
:1012700007E011E0C0E0D0E0C630D1055CF4F80131
:10128000F08061E08F2D0E94370760E08F2D0E9473
:10129000DF0605C062E0F80180810E9437072196D1
:1012A0000E5F1F4FC830D10539F762E083E00E941E
:1012B000370744E650E062E070E080E090E00E9492
:1012C0004A0435E7232E30E0332E41EB442E40E034
:1012D000542E5DE9652E50E0752ECAE0D0E08824DA
:1012E0008A9463E0962EA12CB12C1092DF0110920B
:1012F000DE011092DD011092DC01F1018491F20116
:101300001491F3010491002379F081110E94B60633
:10131000E02FF0E0EE0FFF1FEA57FF4FA591B491C9
:101320008C91182309F0EEC0809100019AE0C92E3B
:10133000D12C882309F48BC082E10E947307E090CE
:10134000DE01F090DF01E80EF91EF092DF01E0927D
:10135000DE0183E10E9473070091DC011091DD0141
:10136000080F191F1093DD010093DC0165E070E0A8
:1013700080E090E00E948A07F1E0CF1AD108E1F600
:10138000C701BE010E94690C7093DF016093DE010A
:10139000C801BE010E94690C7093DD016093DC01FD
:1013A00082E791E00E9412068091DE019091DF01B8
:1013B0000E943A068FE791E00E9412068091DC01BC
:1013C0009091DD010E943A060091DC011091DD014F
:1013D0008091DE019091DF01803921E09207CCF409
:1013E00082E090E00E940E0740E050E062E070E092
:1013F00081E090E00E940D03003911400CF07DC0A7
:1014000084E090E00E940E0740E050E064E070E06D
:101410001BC08D3B92400CF47CC083E090E00E94A6
:101420000E0740E050E063E070E081E090E00E9451
:101430000D030039114024F385E090E00E940E076F
:1014400040E050E065E070E081E090E054C082E16F
:101450000E947307E090DE01F090DF01E80EF91EB4
:10146000F092DF01E092DE0183E10E9473070091B8
:10147000DC011091DD01080F191F1093DD010093AD
:10148000DC0165E070E080E090E00E948A0721E0E6
:10149000C21AD108E1F6C701BE010E94690CFB0126
:1014A0007093DF016093DE01C801BE010E94690CE8
:1014B0008B017093DD016093DC0124E630E0DF01F5
:1014C0000E947D0CA50194010E94E20BA90161E03C
:1014D00070E082E090E00E940D0324E630E0D80145
:1014E0000E947D0CA50194010E94E20BA90162E01B
:1014F00070E082E090E00E940D030E9494040E943C
:101500009001F3CE8091000191E089278093000142
:101510000BCF003911408CF773CF8DE291E090939F
:101520007E0280937D028091DA019091DB018D57DC
:10153000924071F4E0919002F0919102908180913B
:1015400092028095892380831092DB011092DA0148
:101550008CE992E00E94F30282EA92E00C94F3029A
:10156000CF92DF92EF92FF921092E3011092E2018C
:1015700098EEC92E93E0D92EE12CF12CC092E40113
:10158000D092E501E092E601F092E7018BE191E073
:101590009093E1018093E00185EC90E09093ED0160
:1015A0008093EC0184EC90E09093EF018093EE0146
:1015B00080EC90E09093F1018093F00181EC90E059
:1015C0009093F3018093F20182EC90E09093F50107
:1015D0008093F40186EC90E09093F7018093F601FC
:1015E0001092F9011092FA011092FB011092FC0185
:1015F0006EE871E082EA92E00E94F8026EE871E023
:101600008CE992E00E94F8021092800210927F0210
:10161000C0928102D0928202E0928302F092840210
:101620008DE291E090937E0280937D02109294026D
:1016300010929302109296021092950210929802C4
:101640001092970210929A021092990260919B0256
:101650006E7F6D7F60939B026695617081E0682765
:1016600084E00E94DF0661E084E00E943707E2EB3D
:10167000F0E0E491E0938D02EEE9F0E0E491F0E037
:10168000EE0FFF1FE057FF4F8591949190938F02CB
:1016900080938E0260E085E00E94370780919B0274
:1016A00081FD04C061E085E00E94DF0685E0809353
:1016B0008902E3EBF0E0E491E0938A02EFE9F0E0E5
:1016C000E491F0E0EE0FFF1FEA57FF4F85919491F0
:1016D00090938C0280938B02FF90EF90DF90CF90DD
:1016E00008951F93FC0199278827BC01E894119164
:1016F0001032E9F3193010F01E30C8F31B3251F0EC
:101700001D3249F4689406C00E94A30B610F711D3D
:10171000811D911D119110531A30B0F33EF4909534
:101720008095709561957F4F8F4F9F4F1F910895C2
:10173000BB274A3031F4992322F4BDE2909581957C
:101740009F4F0C94B90B592F482F372F262F660F18
:10175000771F881F991F660F771F881F991F620FB9
:10176000731F841F951F660F771F881F991F089589
:10177000BB27FB015527AA27880F991FAA1FA4176B
:1017800010F0A41B83955051B9F7A05DAA3308F05F
:10179000A95DA193009779F7B111B1931192CB0193
:1017A0000C94D20BDC01FC01672F71917723E1F7D8
:1017B000329704C07C916D9370836291AE17BF071E
:1017C000C8F30895052E97FB1EF400940E94F90BB0
:1017D00057FD07D00E94380C07FC03D04EF40C9440
:1017E000F90B50954095309521953F4F4F4F5F4FE6
:1017F000089590958095709561957F4F8F4F9F4F7D
:1018000008952F923F924F925F926F927F928F92A4
:101810009F92AF92BF92CF92DF92EF92FF920F937F
:101820001F93CF93DF93CDB7DEB7CA1BDB0B0FB689
:10183000F894DEBF0FBECDBF09942A883988488846
:101840005F846E847D848C849B84AA84B984C884DC
:10185000DF80EE80FD800C811B81AA81B981CE0FD3
:10186000D11D0FB6F894DEBF0FBECDBFED010895B8
:10187000A1E21A2EAA1BBB1BFD010DC0AA1FBB1F94
:10188000EE1FFF1FA217B307E407F50720F0A21B06
:10189000B30BE40BF50B661F771F881F991F1A9473
:1018A00069F760957095809590959B01AC01BD019D
:1018B000CF010895A29FB001B39FC001A39F700DF7
:1018C000811D1124911DB29F700D811D1124911D48
:1018D000089597FB072E16F4009407D077FD09D0E2
:1018E0000E94840C07FC05D03EF4909581959F4F93
:1018F0000895709561957F4F08950E945A0CB7FF27
:101900000895821B930B0895AA1BBB1B51E107C0CE
:10191000AA1FBB1FA617B70710F0A61BB70B881F7F
:10192000991F5A95A9F780959095BC01CD0108950E
:10193000EE0FFF1F0590F491E02D09940F931F9374
:10194000CF93DF938230910510F482E090E0E09134
:10195000B302F091B40220E030E0A0E0B0E03097B4
:1019600019F1408151810281138148175907C8F04C
:101970008417950769F4109731F012960C9312971B
:1019800013961C9327C00093B3021093B40222C095
:101990002115310519F04217530718F49A01BD01BA
:1019A000EF01DF01F801DBCF21153105F9F0281B2C
:1019B000390B2430310580F48A819B8161157105D2
:1019C00021F0FB019383828304C09093B40280933F
:1019D000B302FE01329644C0FE01E20FF31F819371
:1019E000919322503109398328833AC02091B10262
:1019F0003091B202232B41F4209103013091040174
:101A00003093B2022093B102209101013091020182
:101A10002115310541F42DB73EB740910501509194
:101A20000601241B350BE091B102F091B202E217DE
:101A3000F307A0F42E1B3F0B2817390778F0AC01F1
:101A40004E5F5F4F2417350748F04E0F5F1F5093CE
:101A5000B2024093B1028193919302C0E0E0F0E0C2
:101A6000CF01DF91CF911F910F910895CF93DF9315
:101A7000009709F481C0FC01329713821282A09171
:101A8000B302B091B402109781F420813181820FAA
:101A9000931F2091B1023091B2022817390751F5F6
:101AA000F093B202E093B10267C0ED0120E030E0B4
:101AB000CE17DF0740F44A815B819E014115510535
:101AC000F1F0EA01F5CFD383C28340815181840FC5
:101AD000951FC817D90759F488819981840F951FDC
:101AE0000296918380838A819B81938382832115CF
:101AF000310529F4F093B402E093B3023DC0E9014B
:101B0000FB83EA8349915991C40FD51FEC17FD0758
:101B100061F480819181840F951F0296E901998378
:101B20008883828193819B838A83E0E0F0E0129630
:101B30008D919C911397009719F0FD01DC01F7CF6F
:101B40008D919C9111979D012E5F3F4F820F931FA6
:101B50002091B1023091B2022817390769F4309709
:101B600029F41092B4021092B30202C013821282BE
:101B7000B093B202A093B102DF91CF910895A0E09B
:101B8000B0E0E5ECFDE00C94050CEC01009721F4CD
:101B9000CB010E949E0CB4C0FC01E60FF71F9C0114
:101BA00022503109E217F30708F4A8C0D9010D91BA
:101BB0001C91119706171707B0F00530110508F4AE
:101BC0009BC0C80104978617970708F495C0025078
:101BD0001109061B170B019311936D937C93CF0191
:101BE0000E94360D89C05B01A01AB10A4C01800E1B
:101BF000911EA091B302B091B402612C712CE12C22
:101C0000F12C109709F446C08D919C911197A8155D
:101C1000B905B1F56C0142E0C40ED11CCA14DB0455
:101C200078F14C018A189B08640142E0C40ED11C73
:101C30001296BC9012971396AC91B5E0CB16D104D6
:101C400040F0B282A38391828082D9016D937C930C
:101C500009C00E5F1F4F800F911FF9019183808390
:101C6000EB2DFA2FE114F10431F0D7011396FC9318
:101C7000EE93129741C0F093B402E093B3023CC0DC
:101C80006816790608F43C017D0112960D90BC910E
:101C9000A02DB7CF8091B1029091B202881699061B
:101CA000E1F466167706C8F4809101019091020173
:101CB000009741F48DB79EB7409105015091060100
:101CC000841B950BE817F907C8F4F093B202E09370
:101CD000B102F901718360830FC0CB010E949E0C99
:101CE0007C01009759F0A801BE010E948A0ECE0126
:101CF0000E94360DC70104C0CE0102C080E090E012
:101D0000CDB7DEB7EEE00C94210C81E090E0F894C2
:101D10000C949A0EFB01DC0102C001900D9241501F
:101D20005040D8F70895FB01DC0101900D9200208E
:101D3000E1F7089510E0C2E6D0E004C0FE010E9481
:0E1D4000980C2196C336D107C9F7F894FFCF4F
:101D4E00010000B50280000D0002000E001000110F
:101D5E00001200120013000000000021018E00B8D6
:101D6E00006E01E900C700DB0000000000B3018E29
:101D7E00003C02B20103021B029A01313C003C32CC
:101D8E0035353C303C0056616C6F72657320726560
:101D9E0063696269646F733A20004D656E73616AA0
:101DAE006520612073657220656E76696164613AA3
:101DBE00200056616C6F7220646520783A200056C0
:101DCE00616C6F7220646520793A20000D0A000064
:107E0000112484B714BE81FFF0D085E080938100F7
:107E100082E08093C00088E18093C10086E0809377
:107E2000C20080E18093C4008EE0C9D0259A86E02C
:107E300020E33CEF91E0309385002093840096BBD3
:107E4000B09BFECF1D9AA8958150A9F7CC24DD24C4
:107E500088248394B5E0AB2EA1E19A2EF3E0BF2EE7
:107E6000A2D0813461F49FD0082FAFD0023811F036
:107E7000013811F484E001C083E08DD089C08234E0
:107E800011F484E103C0853419F485E0A6D080C0E4
:107E9000853579F488D0E82EFF2485D0082F10E0AE
:107EA000102F00270E291F29000F111F8ED06801E7
:107EB0006FC0863521F484E090D080E0DECF843638
:107EC00009F040C070D06FD0082F6DD080E0C81688
:107ED00080E7D80618F4F601B7BEE895C0E0D1E017
:107EE00062D089930C17E1F7F0E0CF16F0E7DF06D8
:107EF00018F0F601B7BEE89568D007B600FCFDCFD4
:107F0000A601A0E0B1E02C9130E011968C91119780
:107F100090E0982F8827822B932B1296FA010C0160
:107F200087BEE89511244E5F5F4FF1E0A038BF0790
:107F300051F7F601A7BEE89507B600FCFDCF97BE46
:107F4000E89526C08437B1F42ED02DD0F82E2BD052
:107F50003CD0F601EF2C8F010F5F1F4F84911BD097
:107F6000EA94F801C1F70894C11CD11CFA94CF0C13
:107F7000D11C0EC0853739F428D08EE10CD085E9AC
:107F80000AD08FE07ACF813511F488E018D01DD067
:107F900080E101D065CF982F8091C00085FFFCCF94
:107FA0009093C60008958091C00087FFFCCF809118
:107FB000C00084FD01C0A8958091C6000895E0E648
:107FC000F0E098E1908380830895EDDF803219F02E
:107FD00088E0F5DFFFCF84E1DECF1F93182FE3DFCA
:107FE0001150E9F7F2DF1F91089580E0E8DFEE27F6
:047FF000FF270994CA
:027FFE00040479
:0400000300007E007B
:00000001FF
